{
  "_format": "hh-sol-artifact-1",
  "contractName": "ImmutableTrackRecord_v0",
  "sourceName": "contracts/contracts/ImmutableTrackRecord_v0.sol",
  "abi": [
    {
      "inputs": [
        {
          "internalType": "address",
          "name": "_priceFeed",
          "type": "address"
        }
      ],
      "stateMutability": "nonpayable",
      "type": "constructor"
    },
    {
      "anonymous": false,
      "inputs": [
        {
          "indexed": true,
          "internalType": "address",
          "name": "previousOwner",
          "type": "address"
        },
        {
          "indexed": true,
          "internalType": "address",
          "name": "newOwner",
          "type": "address"
        }
      ],
      "name": "OwnershipTransferred",
      "type": "event"
    },
    {
      "anonymous": false,
      "inputs": [
        {
          "indexed": false,
          "internalType": "address",
          "name": "userAddress",
          "type": "address"
        },
        {
          "indexed": false,
          "internalType": "int256",
          "name": "units",
          "type": "int256"
        },
        {
          "indexed": false,
          "internalType": "string",
          "name": "mktName",
          "type": "string"
        },
        {
          "indexed": true,
          "internalType": "int256",
          "name": "newUserMktRunningProfitOrLossEOP",
          "type": "int256"
        },
        {
          "indexed": false,
          "internalType": "uint256",
          "name": "blockTimestamp",
          "type": "uint256"
        }
      ],
      "name": "PositionUpdatedOracle",
      "type": "event"
    },
    {
      "inputs": [],
      "name": "getLatestPriceExposed",
      "outputs": [
        {
          "internalType": "uint256",
          "name": "",
          "type": "uint256"
        }
      ],
      "stateMutability": "view",
      "type": "function"
    },
    {
      "inputs": [],
      "name": "oracleTime",
      "outputs": [
        {
          "internalType": "uint256",
          "name": "",
          "type": "uint256"
        }
      ],
      "stateMutability": "view",
      "type": "function"
    },
    {
      "inputs": [],
      "name": "owner",
      "outputs": [
        {
          "internalType": "address",
          "name": "",
          "type": "address"
        }
      ],
      "stateMutability": "view",
      "type": "function"
    },
    {
      "inputs": [],
      "name": "positionUpdateId",
      "outputs": [
        {
          "internalType": "uint256",
          "name": "",
          "type": "uint256"
        }
      ],
      "stateMutability": "view",
      "type": "function"
    },
    {
      "inputs": [],
      "name": "renounceOwnership",
      "outputs": [],
      "stateMutability": "nonpayable",
      "type": "function"
    },
    {
      "inputs": [
        {
          "internalType": "address",
          "name": "newOwner",
          "type": "address"
        }
      ],
      "name": "transferOwnership",
      "outputs": [],
      "stateMutability": "nonpayable",
      "type": "function"
    },
    {
      "inputs": [
        {
          "internalType": "int256",
          "name": "_units",
          "type": "int256"
        },
        {
          "internalType": "string",
          "name": "_mktName",
          "type": "string"
        }
      ],
      "name": "updatePositionOracle",
      "outputs": [],
      "stateMutability": "nonpayable",
      "type": "function"
    },
    {
      "inputs": [
        {
          "internalType": "address",
          "name": "",
          "type": "address"
        }
      ],
      "name": "userGlobalPositionUpdateId",
      "outputs": [
        {
          "internalType": "uint256",
          "name": "",
          "type": "uint256"
        }
      ],
      "stateMutability": "view",
      "type": "function"
    },
    {
      "inputs": [
        {
          "internalType": "address",
          "name": "",
          "type": "address"
        }
      ],
      "name": "userGlobalProfitOrLoss",
      "outputs": [
        {
          "internalType": "int256",
          "name": "",
          "type": "int256"
        }
      ],
      "stateMutability": "view",
      "type": "function"
    },
    {
      "inputs": [
        {
          "internalType": "address",
          "name": "",
          "type": "address"
        },
        {
          "internalType": "string",
          "name": "",
          "type": "string"
        }
      ],
      "name": "userMktLatestTxPrice",
      "outputs": [
        {
          "internalType": "uint256",
          "name": "",
          "type": "uint256"
        }
      ],
      "stateMutability": "view",
      "type": "function"
    },
    {
      "inputs": [
        {
          "internalType": "address",
          "name": "",
          "type": "address"
        },
        {
          "internalType": "string",
          "name": "",
          "type": "string"
        }
      ],
      "name": "userMktPositionUpdateId",
      "outputs": [
        {
          "internalType": "uint256",
          "name": "",
          "type": "uint256"
        }
      ],
      "stateMutability": "view",
      "type": "function"
    },
    {
      "inputs": [
        {
          "internalType": "address",
          "name": "",
          "type": "address"
        },
        {
          "internalType": "string",
          "name": "",
          "type": "string"
        }
      ],
      "name": "userMktRunningProfitOrLossEOP",
      "outputs": [
        {
          "internalType": "int256",
          "name": "",
          "type": "int256"
        }
      ],
      "stateMutability": "view",
      "type": "function"
    },
    {
      "inputs": [
        {
          "internalType": "address",
          "name": "",
          "type": "address"
        },
        {
          "internalType": "string",
          "name": "",
          "type": "string"
        }
      ],
      "name": "userMktUnitExposure",
      "outputs": [
        {
          "internalType": "int256",
          "name": "",
          "type": "int256"
        }
      ],
      "stateMutability": "view",
      "type": "function"
    }
  ],
  "bytecode": "0x608060405234801561001057600080fd5b50604051610bb3380380610bb383398101604081905261002f916100b2565b61003833610062565b600480546001600160a01b0319166001600160a01b039290921691909117905560006003556100e2565b600080546001600160a01b038381166001600160a01b0319831681178455604051919092169283917f8be0079c531659141344cd1fd0a4f28419497f9722a3daafe3b4186f6b6457e09190a35050565b6000602082840312156100c457600080fd5b81516001600160a01b03811681146100db57600080fd5b9392505050565b610ac2806100f16000396000f3fe608060405234801561001057600080fd5b50600436106100cf5760003560e01c8063785559a91161008c5780638da5cb5b116100665780638da5cb5b14610226578063a7b9390514610241578063e78affc514610249578063f2fde38b1461026957600080fd5b8063785559a9146101c15780637ecf9e70146101ca57806383dc59a2146101ea57600080fd5b806305b27763146100d4578063166fd60f1461012357806322ac4bcd146101385780635a2ca3c5146101745780636630d416146101b0578063715018a6146101b9575b600080fd5b6101106100e23660046107ae565b6007602090815260009283526040909220815180830184018051928152908401929093019190912091525481565b6040519081526020015b60405180910390f35b6101366101313660046107fc565b61027c565b005b6101106101463660046107ae565b600a602090815260009283526040909220815180830184018051928152908401929093019190912091525481565b6101106101823660046107ae565b6009602090815260009283526040909220815180830184018051928152908401929093019190912091525481565b61011060015481565b6101366104c3565b61011060025481565b6101106101d836600461082d565b60056020526000908152604090205481565b6101106101f83660046107ae565b6008602090815260009283526040909220815180830184018051928152908401929093019190912091525481565b6000546040516001600160a01b03909116815260200161011a565b61011061052e565b61011061025736600461082d565b60066020526000908152604090205481565b61013661027736600461082d565b61053d565b33600090815260086020526040808220905161029990849061087f565b90815260408051602092819003830181205433600090815260099094529183209193506102c790859061087f565b908152602001604051809103902054905060006102e2610608565b905060006102f083836108b1565b905060006102fe82866108f0565b336000908152600a60205260408082209051929350909161032090899061087f565b908152604051908190036020019020549050600061033e8383610975565b336000908152600a60205260409081902090519192508291610361908b9061087f565b9081526040805160209281900383019020929092553360009081526005909152908120805491610390836109b6565b909155506103a0905082826108b1565b33600090815260066020526040812080549091906103bf908490610975565b9091555050336000908152600760205260409081902090516103e2908a9061087f565b90815260405190819003602001902080549060006103ff836109b6565b9091555050336000908152600860205260409081902090518a9190610425908b9061087f565b908152602001604051809103902060008282546104429190610975565b909155505033600090815260096020526040908190209051869190610468908b9061087f565b908152602001604051809103902081905550807f81d12f0549f558b06a9856bf462680692eca82d2dd4add7028032844e53148b8338b8b426040516104b094939291906109d1565b60405180910390a2505050505050505050565b6000546001600160a01b031633146105225760405162461bcd60e51b815260206004820181905260248201527f4f776e61626c653a2063616c6c6572206973206e6f7420746865206f776e657260448201526064015b60405180910390fd5b61052c600061069f565b565b6000610538610608565b905090565b6000546001600160a01b031633146105975760405162461bcd60e51b815260206004820181905260248201527f4f776e61626c653a2063616c6c6572206973206e6f7420746865206f776e65726044820152606401610519565b6001600160a01b0381166105fc5760405162461bcd60e51b815260206004820152602660248201527f4f776e61626c653a206e6577206f776e657220697320746865207a65726f206160448201526564647265737360d01b6064820152608401610519565b6106058161069f565b50565b6000806000600460009054906101000a90046001600160a01b03166001600160a01b031663feaf968c6040518163ffffffff1660e01b815260040160a06040518083038186803b15801561065b57600080fd5b505afa15801561066f573d6000803e3d6000fd5b505050506040513d601f19601f820116820180604052508101906106939190610a3c565b50919695505050505050565b600080546001600160a01b038381166001600160a01b0319831681178455604051919092169283917f8be0079c531659141344cd1fd0a4f28419497f9722a3daafe3b4186f6b6457e09190a35050565b80356001600160a01b038116811461070657600080fd5b919050565b634e487b7160e01b600052604160045260246000fd5b600082601f83011261073257600080fd5b813567ffffffffffffffff8082111561074d5761074d61070b565b604051601f8301601f19908116603f011681019082821181831017156107755761077561070b565b8160405283815286602085880101111561078e57600080fd5b836020870160208301376000602085830101528094505050505092915050565b600080604083850312156107c157600080fd5b6107ca836106ef565b9150602083013567ffffffffffffffff8111156107e657600080fd5b6107f285828601610721565b9150509250929050565b6000806040838503121561080f57600080fd5b82359150602083013567ffffffffffffffff8111156107e657600080fd5b60006020828403121561083f57600080fd5b610848826106ef565b9392505050565b60005b8381101561086a578181015183820152602001610852565b83811115610879576000848401525b50505050565b6000825161089181846020870161084f565b9190910192915050565b634e487b7160e01b600052601160045260246000fd5b60008083128015600160ff1b8501841216156108cf576108cf61089b565b6001600160ff1b03840183138116156108ea576108ea61089b565b50500390565b60006001600160ff1b03818413828413808216868404861116156109165761091661089b565b600160ff1b60008712828116878305891216156109355761093561089b565b600087129250878205871284841616156109515761095161089b565b878505871281841616156109675761096761089b565b505050929093029392505050565b600080821280156001600160ff1b03849003851316156109975761099761089b565b600160ff1b83900384128116156109b0576109b061089b565b50500190565b60006000198214156109ca576109ca61089b565b5060010190565b60018060a01b03851681528360208201526080604082015260008351806080840152610a048160a085016020880161084f565b606083019390935250601f91909101601f19160160a0019392505050565b805169ffffffffffffffffffff8116811461070657600080fd5b600080600080600060a08688031215610a5457600080fd5b610a5d86610a22565b9450602086015193506040860151925060608601519150610a8060808701610a22565b9050929550929590935056fea26469706673582212204a6bdb9d3c36733b9fb9ef6ea97f728cb3bdc3bc5b251f425c77fbd5b29e05f864736f6c63430008090033",
  "linkReferences": {},
  "deployedLinkReferences": {}
}